{
  "_format": "hh-sol-artifact-1",
  "contractName": "Metadata",
  "sourceName": "contracts/Metadata.sol",
  "abi": [
    {
      "inputs": [],
      "stateMutability": "nonpayable",
      "type": "constructor"
    },
    {
      "anonymous": false,
      "inputs": [
        {
          "indexed": true,
          "internalType": "address",
          "name": "previousOwner",
          "type": "address"
        },
        {
          "indexed": true,
          "internalType": "address",
          "name": "newOwner",
          "type": "address"
        }
      ],
      "name": "OwnershipTransferred",
      "type": "event"
    },
    {
      "inputs": [],
      "name": "baseURI",
      "outputs": [
        {
          "internalType": "string",
          "name": "",
          "type": "string"
        }
      ],
      "stateMutability": "view",
      "type": "function"
    },
    {
      "inputs": [
        {
          "internalType": "uint256",
          "name": "tokenId",
          "type": "uint256"
        }
      ],
      "name": "getMetadata",
      "outputs": [
        {
          "internalType": "string",
          "name": "",
          "type": "string"
        }
      ],
      "stateMutability": "view",
      "type": "function"
    },
    {
      "inputs": [],
      "name": "owner",
      "outputs": [
        {
          "internalType": "address",
          "name": "",
          "type": "address"
        }
      ],
      "stateMutability": "view",
      "type": "function"
    },
    {
      "inputs": [],
      "name": "renounceOwnership",
      "outputs": [],
      "stateMutability": "nonpayable",
      "type": "function"
    },
    {
      "inputs": [
        {
          "internalType": "string",
          "name": "baseURI_",
          "type": "string"
        }
      ],
      "name": "setbaseURI",
      "outputs": [],
      "stateMutability": "nonpayable",
      "type": "function"
    },
    {
      "inputs": [
        {
          "internalType": "address",
          "name": "newOwner",
          "type": "address"
        }
      ],
      "name": "transferOwnership",
      "outputs": [],
      "stateMutability": "nonpayable",
      "type": "function"
    }
  ],
  "bytecode": "0x60e060405260266080818152906109d660a03960019061001f908261012a565b5034801561002c57600080fd5b506100363361003b565b6101e9565b600080546001600160a01b038381166001600160a01b0319831681178455604051919092169283917f8be0079c531659141344cd1fd0a4f28419497f9722a3daafe3b4186f6b6457e09190a35050565b634e487b7160e01b600052604160045260246000fd5b600181811c908216806100b557607f821691505b6020821081036100d557634e487b7160e01b600052602260045260246000fd5b50919050565b601f82111561012557600081815260208120601f850160051c810160208610156101025750805b601f850160051c820191505b818110156101215782815560010161010e565b5050505b505050565b81516001600160401b038111156101435761014361008b565b6101578161015184546100a1565b846100db565b602080601f83116001811461018c57600084156101745750858301515b600019600386901b1c1916600185901b178555610121565b600085815260208120601f198616915b828110156101bb5788860151825594840194600190910190840161019c565b50858210156101d95787850151600019600388901b60f8161c191681555b5050505050600190811b01905550565b6107de806101f86000396000f3fe608060405234801561001057600080fd5b50600436106100625760003560e01c80634a44f379146100675780636c0360eb1461007c578063715018a61461009a5780638da5cb5b146100a2578063a574cea4146100bd578063f2fde38b146100d0575b600080fd5b61007a61007536600461047b565b6100e3565b005b6100846100fb565b604051610091919061055c565b60405180910390f35b61007a610189565b6000546040516001600160a01b039091168152602001610091565b6100846100cb36600461058f565b61019d565b61007a6100de3660046105a8565b6101d1565b6100eb61024f565b60016100f78282610661565b5050565b60018054610108906105d8565b80601f0160208091040260200160405190810160405280929190818152602001828054610134906105d8565b80156101815780601f1061015657610100808354040283529160200191610181565b820191906000526020600020905b81548152906001019060200180831161016457829003601f168201915b505050505081565b61019161024f565b61019b60006102a9565b565b606060016101aa836102f9565b6040516020016101bb929190610721565b6040516020818303038152906040529050919050565b6101d961024f565b6001600160a01b0381166102435760405162461bcd60e51b815260206004820152602660248201527f4f776e61626c653a206e6577206f776e657220697320746865207a65726f206160448201526564647265737360d01b60648201526084015b60405180910390fd5b61024c816102a9565b50565b6000546001600160a01b0316331461019b5760405162461bcd60e51b815260206004820181905260248201527f4f776e61626c653a2063616c6c6572206973206e6f7420746865206f776e6572604482015260640161023a565b600080546001600160a01b038381166001600160a01b0319831681178455604051919092169283917f8be0079c531659141344cd1fd0a4f28419497f9722a3daafe3b4186f6b6457e09190a35050565b606060006103068361038c565b600101905060008167ffffffffffffffff81111561032657610326610465565b6040519080825280601f01601f191660200182016040528015610350576020820181803683370190505b5090508181016020015b600019016f181899199a1a9b1b9c1cb0b131b232b360811b600a86061a8153600a850494508461035a57509392505050565b60008072184f03e93ff9f4daa797ed6e38ed64bf6a1f0160401b83106103cb5772184f03e93ff9f4daa797ed6e38ed64bf6a1f0160401b830492506040015b6d04ee2d6d415b85acef810000000083106103f7576d04ee2d6d415b85acef8100000000830492506020015b662386f26fc10000831061041557662386f26fc10000830492506010015b6305f5e100831061042d576305f5e100830492506008015b612710831061044157612710830492506004015b60648310610453576064830492506002015b600a831061045f576001015b92915050565b634e487b7160e01b600052604160045260246000fd5b60006020828403121561048d57600080fd5b813567ffffffffffffffff808211156104a557600080fd5b818401915084601f8301126104b957600080fd5b8135818111156104cb576104cb610465565b604051601f8201601f19908116603f011681019083821181831017156104f3576104f3610465565b8160405282815287602084870101111561050c57600080fd5b826020860160208301376000928101602001929092525095945050505050565b60005b8381101561054757818101518382015260200161052f565b83811115610556576000848401525b50505050565b602081526000825180602084015261057b81604085016020870161052c565b601f01601f19169190910160400192915050565b6000602082840312156105a157600080fd5b5035919050565b6000602082840312156105ba57600080fd5b81356001600160a01b03811681146105d157600080fd5b9392505050565b600181811c908216806105ec57607f821691505b60208210810361060c57634e487b7160e01b600052602260045260246000fd5b50919050565b601f82111561065c57600081815260208120601f850160051c810160208610156106395750805b601f850160051c820191505b8181101561065857828155600101610645565b5050505b505050565b815167ffffffffffffffff81111561067b5761067b610465565b61068f8161068984546105d8565b84610612565b602080601f8311600181146106c457600084156106ac5750858301515b600019600386901b1c1916600185901b178555610658565b600085815260208120601f198616915b828110156106f3578886015182559484019460019091019084016106d4565b50858210156107115787850151600019600388901b60f8161c191681555b5050505050600190811b01905550565b600080845461072f816105d8565b60018281168015610747576001811461075c5761078b565b60ff198416875282151583028701945061078b565b8860005260208060002060005b858110156107825781548a820152908401908201610769565b50505082870194505b50505050835161079f81836020880161052c565b0194935050505056fea2646970667358221220b3ae4aae62d41a0112d4c0e12bed32d1219c9c3b60f24a843ec4f64bc0a0b3d064736f6c634300080f003368747470733a2f2f747261766573732e666f6c69612e6170702f76312f6d657461646174612f",
  "linkReferences": {},
  "deployedLinkReferences": {}
}