{
  "_format": "hh-sol-artifact-1",
  "contractName": "NFT",
  "sourceName": "contracts/NFT.sol",
  "abi": [
    {
      "inputs": [
        {
          "internalType": "address",
          "name": "metadata_",
          "type": "address"
        },
        {
          "internalType": "address",
          "name": "splitter_",
          "type": "address"
        }
      ],
      "stateMutability": "nonpayable",
      "type": "constructor"
    },
    {
      "inputs": [],
      "name": "ApprovalCallerNotOwnerNorApproved",
      "type": "error"
    },
    {
      "inputs": [],
      "name": "ApprovalQueryForNonexistentToken",
      "type": "error"
    },
    {
      "inputs": [],
      "name": "BalanceQueryForZeroAddress",
      "type": "error"
    },
    {
      "inputs": [],
      "name": "InvalidQueryRange",
      "type": "error"
    },
    {
      "inputs": [],
      "name": "MintERC2309QuantityExceedsLimit",
      "type": "error"
    },
    {
      "inputs": [],
      "name": "MintToZeroAddress",
      "type": "error"
    },
    {
      "inputs": [],
      "name": "MintZeroQuantity",
      "type": "error"
    },
    {
      "inputs": [],
      "name": "OwnerQueryForNonexistentToken",
      "type": "error"
    },
    {
      "inputs": [],
      "name": "OwnershipNotInitializedForExtraData",
      "type": "error"
    },
    {
      "inputs": [],
      "name": "TransferCallerNotOwnerNorApproved",
      "type": "error"
    },
    {
      "inputs": [],
      "name": "TransferFromIncorrectOwner",
      "type": "error"
    },
    {
      "inputs": [],
      "name": "TransferToNonERC721ReceiverImplementer",
      "type": "error"
    },
    {
      "inputs": [],
      "name": "TransferToZeroAddress",
      "type": "error"
    },
    {
      "inputs": [],
      "name": "URIQueryForNonexistentToken",
      "type": "error"
    },
    {
      "anonymous": false,
      "inputs": [
        {
          "indexed": true,
          "internalType": "address",
          "name": "owner",
          "type": "address"
        },
        {
          "indexed": true,
          "internalType": "address",
          "name": "approved",
          "type": "address"
        },
        {
          "indexed": true,
          "internalType": "uint256",
          "name": "tokenId",
          "type": "uint256"
        }
      ],
      "name": "Approval",
      "type": "event"
    },
    {
      "anonymous": false,
      "inputs": [
        {
          "indexed": true,
          "internalType": "address",
          "name": "owner",
          "type": "address"
        },
        {
          "indexed": true,
          "internalType": "address",
          "name": "operator",
          "type": "address"
        },
        {
          "indexed": false,
          "internalType": "bool",
          "name": "approved",
          "type": "bool"
        }
      ],
      "name": "ApprovalForAll",
      "type": "event"
    },
    {
      "anonymous": false,
      "inputs": [
        {
          "indexed": true,
          "internalType": "uint256",
          "name": "fromTokenId",
          "type": "uint256"
        },
        {
          "indexed": false,
          "internalType": "uint256",
          "name": "toTokenId",
          "type": "uint256"
        },
        {
          "indexed": true,
          "internalType": "address",
          "name": "from",
          "type": "address"
        },
        {
          "indexed": true,
          "internalType": "address",
          "name": "to",
          "type": "address"
        }
      ],
      "name": "ConsecutiveTransfer",
      "type": "event"
    },
    {
      "anonymous": false,
      "inputs": [
        {
          "indexed": true,
          "internalType": "address",
          "name": "to",
          "type": "address"
        },
        {
          "indexed": true,
          "internalType": "bool",
          "name": "success",
          "type": "bool"
        },
        {
          "indexed": false,
          "internalType": "bytes",
          "name": "returnData",
          "type": "bytes"
        },
        {
          "indexed": false,
          "internalType": "uint256",
          "name": "amount",
          "type": "uint256"
        }
      ],
      "name": "EthMoved",
      "type": "event"
    },
    {
      "anonymous": false,
      "inputs": [
        {
          "indexed": true,
          "internalType": "address",
          "name": "previousOwner",
          "type": "address"
        },
        {
          "indexed": true,
          "internalType": "address",
          "name": "newOwner",
          "type": "address"
        }
      ],
      "name": "OwnershipTransferred",
      "type": "event"
    },
    {
      "anonymous": false,
      "inputs": [
        {
          "indexed": true,
          "internalType": "address",
          "name": "from",
          "type": "address"
        },
        {
          "indexed": true,
          "internalType": "address",
          "name": "to",
          "type": "address"
        },
        {
          "indexed": true,
          "internalType": "uint256",
          "name": "tokenId",
          "type": "uint256"
        }
      ],
      "name": "Transfer",
      "type": "event"
    },
    {
      "stateMutability": "payable",
      "type": "fallback"
    },
    {
      "inputs": [],
      "name": "MAX_SUPPLY",
      "outputs": [
        {
          "internalType": "uint256",
          "name": "",
          "type": "uint256"
        }
      ],
      "stateMutability": "view",
      "type": "function"
    },
    {
      "inputs": [
        {
          "internalType": "address",
          "name": "recipient",
          "type": "address"
        },
        {
          "internalType": "uint256",
          "name": "quantity",
          "type": "uint256"
        }
      ],
      "name": "adminMint",
      "outputs": [],
      "stateMutability": "payable",
      "type": "function"
    },
    {
      "inputs": [
        {
          "internalType": "address",
          "name": "_wallet",
          "type": "address"
        },
        {
          "internalType": "bytes32[]",
          "name": "_proof",
          "type": "bytes32[]"
        }
      ],
      "name": "allowListed",
      "outputs": [
        {
          "internalType": "bool",
          "name": "",
          "type": "bool"
        }
      ],
      "stateMutability": "view",
      "type": "function"
    },
    {
      "inputs": [
        {
          "internalType": "address",
          "name": "to",
          "type": "address"
        },
        {
          "internalType": "uint256",
          "name": "tokenId",
          "type": "uint256"
        }
      ],
      "name": "approve",
      "outputs": [],
      "stateMutability": "payable",
      "type": "function"
    },
    {
      "inputs": [
        {
          "internalType": "address",
          "name": "owner",
          "type": "address"
        }
      ],
      "name": "balanceOf",
      "outputs": [
        {
          "internalType": "uint256",
          "name": "",
          "type": "uint256"
        }
      ],
      "stateMutability": "view",
      "type": "function"
    },
    {
      "inputs": [
        {
          "internalType": "uint256",
          "name": "tokenId",
          "type": "uint256"
        }
      ],
      "name": "explicitOwnershipOf",
      "outputs": [
        {
          "components": [
            {
              "internalType": "address",
              "name": "addr",
              "type": "address"
            },
            {
              "internalType": "uint64",
              "name": "startTimestamp",
              "type": "uint64"
            },
            {
              "internalType": "bool",
              "name": "burned",
              "type": "bool"
            },
            {
              "internalType": "uint24",
              "name": "extraData",
              "type": "uint24"
            }
          ],
          "internalType": "struct IERC721A.TokenOwnership",
          "name": "",
          "type": "tuple"
        }
      ],
      "stateMutability": "view",
      "type": "function"
    },
    {
      "inputs": [
        {
          "internalType": "uint256[]",
          "name": "tokenIds",
          "type": "uint256[]"
        }
      ],
      "name": "explicitOwnershipsOf",
      "outputs": [
        {
          "components": [
            {
              "internalType": "address",
              "name": "addr",
              "type": "address"
            },
            {
              "internalType": "uint64",
              "name": "startTimestamp",
              "type": "uint64"
            },
            {
              "internalType": "bool",
              "name": "burned",
              "type": "bool"
            },
            {
              "internalType": "uint24",
              "name": "extraData",
              "type": "uint24"
            }
          ],
          "internalType": "struct IERC721A.TokenOwnership[]",
          "name": "",
          "type": "tuple[]"
        }
      ],
      "stateMutability": "view",
      "type": "function"
    },
    {
      "inputs": [
        {
          "internalType": "uint256",
          "name": "tokenId",
          "type": "uint256"
        }
      ],
      "name": "getApproved",
      "outputs": [
        {
          "internalType": "address",
          "name": "",
          "type": "address"
        }
      ],
      "stateMutability": "view",
      "type": "function"
    },
    {
      "inputs": [
        {
          "internalType": "address",
          "name": "owner",
          "type": "address"
        },
        {
          "internalType": "address",
          "name": "operator",
          "type": "address"
        }
      ],
      "name": "isApprovedForAll",
      "outputs": [
        {
          "internalType": "bool",
          "name": "",
          "type": "bool"
        }
      ],
      "stateMutability": "view",
      "type": "function"
    },
    {
      "inputs": [],
      "name": "merkleRoot",
      "outputs": [
        {
          "internalType": "bytes32",
          "name": "",
          "type": "bytes32"
        }
      ],
      "stateMutability": "view",
      "type": "function"
    },
    {
      "inputs": [],
      "name": "metadata",
      "outputs": [
        {
          "internalType": "address",
          "name": "",
          "type": "address"
        }
      ],
      "stateMutability": "view",
      "type": "function"
    },
    {
      "inputs": [],
      "name": "mint",
      "outputs": [],
      "stateMutability": "payable",
      "type": "function"
    },
    {
      "inputs": [
        {
          "internalType": "address",
          "name": "recipient",
          "type": "address"
        },
        {
          "internalType": "uint256",
          "name": "quantity",
          "type": "uint256"
        }
      ],
      "name": "mint",
      "outputs": [],
      "stateMutability": "payable",
      "type": "function"
    },
    {
      "inputs": [
        {
          "internalType": "address",
          "name": "recipient",
          "type": "address"
        }
      ],
      "name": "mint",
      "outputs": [],
      "stateMutability": "payable",
      "type": "function"
    },
    {
      "inputs": [
        {
          "internalType": "uint256",
          "name": "quantity",
          "type": "uint256"
        }
      ],
      "name": "mint",
      "outputs": [],
      "stateMutability": "payable",
      "type": "function"
    },
    {
      "inputs": [
        {
          "internalType": "uint256",
          "name": "quantity",
          "type": "uint256"
        },
        {
          "internalType": "bytes32[]",
          "name": "_proof",
          "type": "bytes32[]"
        }
      ],
      "name": "mintAllowList",
      "outputs": [],
      "stateMutability": "payable",
      "type": "function"
    },
    {
      "inputs": [],
      "name": "name",
      "outputs": [
        {
          "internalType": "string",
          "name": "",
          "type": "string"
        }
      ],
      "stateMutability": "view",
      "type": "function"
    },
    {
      "inputs": [],
      "name": "owner",
      "outputs": [
        {
          "internalType": "address",
          "name": "",
          "type": "address"
        }
      ],
      "stateMutability": "view",
      "type": "function"
    },
    {
      "inputs": [
        {
          "internalType": "uint256",
          "name": "tokenId",
          "type": "uint256"
        }
      ],
      "name": "ownerOf",
      "outputs": [
        {
          "internalType": "address",
          "name": "",
          "type": "address"
        }
      ],
      "stateMutability": "view",
      "type": "function"
    },
    {
      "inputs": [],
      "name": "paused",
      "outputs": [
        {
          "internalType": "bool",
          "name": "",
          "type": "bool"
        }
      ],
      "stateMutability": "view",
      "type": "function"
    },
    {
      "inputs": [],
      "name": "premint",
      "outputs": [
        {
          "internalType": "uint256",
          "name": "",
          "type": "uint256"
        }
      ],
      "stateMutability": "view",
      "type": "function"
    },
    {
      "inputs": [],
      "name": "price",
      "outputs": [
        {
          "internalType": "uint256",
          "name": "",
          "type": "uint256"
        }
      ],
      "stateMutability": "view",
      "type": "function"
    },
    {
      "inputs": [
        {
          "internalType": "address payable",
          "name": "_to",
          "type": "address"
        }
      ],
      "name": "recoverUnsuccessfulMintPayment",
      "outputs": [],
      "stateMutability": "nonpayable",
      "type": "function"
    },
    {
      "inputs": [],
      "name": "renounceOwnership",
      "outputs": [],
      "stateMutability": "nonpayable",
      "type": "function"
    },
    {
      "inputs": [
        {
          "internalType": "uint256",
          "name": "tokenId",
          "type": "uint256"
        },
        {
          "internalType": "uint256",
          "name": "salePrice",
          "type": "uint256"
        }
      ],
      "name": "royaltyInfo",
      "outputs": [
        {
          "internalType": "address",
          "name": "",
          "type": "address"
        },
        {
          "internalType": "uint256",
          "name": "",
          "type": "uint256"
        }
      ],
      "stateMutability": "view",
      "type": "function"
    },
    {
      "inputs": [
        {
          "internalType": "address",
          "name": "from",
          "type": "address"
        },
        {
          "internalType": "address",
          "name": "to",
          "type": "address"
        },
        {
          "internalType": "uint256",
          "name": "tokenId",
          "type": "uint256"
        }
      ],
      "name": "safeTransferFrom",
      "outputs": [],
      "stateMutability": "payable",
      "type": "function"
    },
    {
      "inputs": [
        {
          "internalType": "address",
          "name": "from",
          "type": "address"
        },
        {
          "internalType": "address",
          "name": "to",
          "type": "address"
        },
        {
          "internalType": "uint256",
          "name": "tokenId",
          "type": "uint256"
        },
        {
          "internalType": "bytes",
          "name": "_data",
          "type": "bytes"
        }
      ],
      "name": "safeTransferFrom",
      "outputs": [],
      "stateMutability": "payable",
      "type": "function"
    },
    {
      "inputs": [
        {
          "internalType": "address",
          "name": "operator",
          "type": "address"
        },
        {
          "internalType": "bool",
          "name": "approved",
          "type": "bool"
        }
      ],
      "name": "setApprovalForAll",
      "outputs": [],
      "stateMutability": "nonpayable",
      "type": "function"
    },
    {
      "inputs": [
        {
          "internalType": "bytes32",
          "name": "merkleRoot_",
          "type": "bytes32"
        }
      ],
      "name": "setMerkleRoot",
      "outputs": [],
      "stateMutability": "nonpayable",
      "type": "function"
    },
    {
      "inputs": [
        {
          "internalType": "address",
          "name": "metadata_",
          "type": "address"
        }
      ],
      "name": "setMetadata",
      "outputs": [],
      "stateMutability": "nonpayable",
      "type": "function"
    },
    {
      "inputs": [
        {
          "internalType": "bool",
          "name": "paused_",
          "type": "bool"
        }
      ],
      "name": "setPause",
      "outputs": [],
      "stateMutability": "nonpayable",
      "type": "function"
    },
    {
      "inputs": [
        {
          "internalType": "uint256",
          "name": "premint_",
          "type": "uint256"
        }
      ],
      "name": "setPremint",
      "outputs": [],
      "stateMutability": "nonpayable",
      "type": "function"
    },
    {
      "inputs": [
        {
          "internalType": "uint256",
          "name": "price_",
          "type": "uint256"
        }
      ],
      "name": "setPrice",
      "outputs": [],
      "stateMutability": "nonpayable",
      "type": "function"
    },
    {
      "inputs": [
        {
          "internalType": "address",
          "name": "royaltyReceiver",
          "type": "address"
        },
        {
          "internalType": "uint96",
          "name": "royaltyPercentage",
          "type": "uint96"
        }
      ],
      "name": "setRoyaltyPercentage",
      "outputs": [],
      "stateMutability": "nonpayable",
      "type": "function"
    },
    {
      "inputs": [
        {
          "internalType": "address",
          "name": "splitter_",
          "type": "address"
        }
      ],
      "name": "setSplitter",
      "outputs": [],
      "stateMutability": "nonpayable",
      "type": "function"
    },
    {
      "inputs": [
        {
          "internalType": "uint256",
          "name": "startdate_",
          "type": "uint256"
        }
      ],
      "name": "setStartdate",
      "outputs": [],
      "stateMutability": "nonpayable",
      "type": "function"
    },
    {
      "inputs": [],
      "name": "splitter",
      "outputs": [
        {
          "internalType": "address",
          "name": "",
          "type": "address"
        }
      ],
      "stateMutability": "view",
      "type": "function"
    },
    {
      "inputs": [],
      "name": "startdate",
      "outputs": [
        {
          "internalType": "uint256",
          "name": "",
          "type": "uint256"
        }
      ],
      "stateMutability": "view",
      "type": "function"
    },
    {
      "inputs": [
        {
          "internalType": "bytes4",
          "name": "interfaceId",
          "type": "bytes4"
        }
      ],
      "name": "supportsInterface",
      "outputs": [
        {
          "internalType": "bool",
          "name": "",
          "type": "bool"
        }
      ],
      "stateMutability": "view",
      "type": "function"
    },
    {
      "inputs": [],
      "name": "symbol",
      "outputs": [
        {
          "internalType": "string",
          "name": "",
          "type": "string"
        }
      ],
      "stateMutability": "view",
      "type": "function"
    },
    {
      "inputs": [
        {
          "internalType": "uint256",
          "name": "id",
          "type": "uint256"
        }
      ],
      "name": "tokenURI",
      "outputs": [
        {
          "internalType": "string",
          "name": "",
          "type": "string"
        }
      ],
      "stateMutability": "view",
      "type": "function"
    },
    {
      "inputs": [
        {
          "internalType": "address",
          "name": "owner",
          "type": "address"
        }
      ],
      "name": "tokensOfOwner",
      "outputs": [
        {
          "internalType": "uint256[]",
          "name": "",
          "type": "uint256[]"
        }
      ],
      "stateMutability": "view",
      "type": "function"
    },
    {
      "inputs": [
        {
          "internalType": "address",
          "name": "owner",
          "type": "address"
        },
        {
          "internalType": "uint256",
          "name": "start",
          "type": "uint256"
        },
        {
          "internalType": "uint256",
          "name": "stop",
          "type": "uint256"
        }
      ],
      "name": "tokensOfOwnerIn",
      "outputs": [
        {
          "internalType": "uint256[]",
          "name": "",
          "type": "uint256[]"
        }
      ],
      "stateMutability": "view",
      "type": "function"
    },
    {
      "inputs": [],
      "name": "totalSupply",
      "outputs": [
        {
          "internalType": "uint256",
          "name": "",
          "type": "uint256"
        }
      ],
      "stateMutability": "view",
      "type": "function"
    },
    {
      "inputs": [
        {
          "internalType": "address",
          "name": "from",
          "type": "address"
        },
        {
          "internalType": "address",
          "name": "to",
          "type": "address"
        },
        {
          "internalType": "uint256",
          "name": "tokenId",
          "type": "uint256"
        }
      ],
      "name": "transferFrom",
      "outputs": [],
      "stateMutability": "payable",
      "type": "function"
    },
    {
      "inputs": [
        {
          "internalType": "address",
          "name": "newOwner",
          "type": "address"
        }
      ],
      "name": "transferOwnership",
      "outputs": [],
      "stateMutability": "nonpayable",
      "type": "function"
    },
    {
      "stateMutability": "payable",
      "type": "receive"
    }
  ],
  "bytecode": "0x6080604052600c805460ff1916905566470de4df820000600d554260108190556011557ff78f6412ef155d654600b79b83071b194c4c94f1212bb3feea35d4a290c3d0c96012553480156200005357600080fd5b5060405162002bad38038062002bad833981016040819052620000769162000294565b6040805180820182526007808252665472617665737360c81b6020808401829052845180860190955291845290830152906002620000b5838262000371565b506003620000c4828262000371565b5050600160005550620000d73362000120565b6001600b55600e80546001600160a01b038085166001600160a01b031992831617909255600f8054928416929091168217905562000118906103e862000172565b50506200043d565b600880546001600160a01b038381166001600160a01b0319831681179093556040519116919082907f8be0079c531659141344cd1fd0a4f28419497f9722a3daafe3b4186f6b6457e090600090a35050565b6127106001600160601b0382161115620001e65760405162461bcd60e51b815260206004820152602a60248201527f455243323938313a20726f79616c7479206665652077696c6c206578636565646044820152692073616c65507269636560b01b60648201526084015b60405180910390fd5b6001600160a01b0382166200023e5760405162461bcd60e51b815260206004820152601960248201527f455243323938313a20696e76616c6964207265636569766572000000000000006044820152606401620001dd565b604080518082019091526001600160a01b039092168083526001600160601b039091166020909201829052600160a01b90910217600955565b80516001600160a01b03811681146200028f57600080fd5b919050565b60008060408385031215620002a857600080fd5b620002b38362000277565b9150620002c36020840162000277565b90509250929050565b634e487b7160e01b600052604160045260246000fd5b600181811c90821680620002f757607f821691505b6020821081036200031857634e487b7160e01b600052602260045260246000fd5b50919050565b601f8211156200036c57600081815260208120601f850160051c81016020861015620003475750805b601f850160051c820191505b81811015620003685782815560010162000353565b5050505b505050565b81516001600160401b038111156200038d576200038d620002cc565b620003a5816200039e8454620002e2565b846200031e565b602080601f831160018114620003dd5760008415620003c45750858301515b600019600386901b1c1916600185901b17855562000368565b600085815260208120601f198616915b828110156200040e57888601518255948401946001909101908401620003ed565b50858210156200042d5787850151600019600388901b60f8161c191681555b5050505050600190811b01905550565b612760806200044d6000396000f3fe6080604052600436106102815760003560e01c80637cb647591161014f578063bedb86fb116100c1578063d410f5691161007a578063d410f56914610748578063e58306f914610768578063e985e9c51461077b578063f2fde38b146107c4578063f3cb8385146107e4578063fa05a6571461080457610290565b8063bedb86fb14610685578063c09fd8ef146106a5578063c23dc68f146106c5578063c87b56dd146106f2578063c93fc83d14610712578063cde9f2ea1461073257610290565b806395d89b411161011357806395d89b41146105f457806399a2557a14610609578063a035b1fe14610629578063a0712d681461063f578063a22cb46514610652578063b88d4fde1461067257610290565b80637cb6475914610549578063818779ef146105695780638462151c146105895780638da5cb5b146105b657806391b7f5ed146105d457610290565b8063392f37e9116101f35780635c975abb116101ac5780635c975abb146104a75780636352211e146104c15780636a627842146104e157806370a08231146104f4578063715018a61461051457806375fb32251461052957610290565b8063392f37e9146103fe5780633cd8045e1461041e57806340c10f191461043e57806342842e0e1461045157806348a1e66b146104645780635bbb21771461047a57610290565b806318160ddd1161024557806318160ddd1461033a57806323b872dd14610361578063247155ff146103745780632a55205a146103945780632eb4a7ab146103d357806332cb6b0c146103e957610290565b806301ffc9a71461029857806306fdde03146102cd578063081812fc146102ef578063095ea7b3146103275780631249c58b1461029057610290565b366102905761028e610817565b005b61028e610817565b3480156102a457600080fd5b506102b86102b3366004611fd0565b610824565b60405190151581526020015b60405180910390f35b3480156102d957600080fd5b506102e2610885565b6040516102c49190612045565b3480156102fb57600080fd5b5061030f61030a366004612058565b610917565b6040516001600160a01b0390911681526020016102c4565b61028e610335366004612086565b61095b565b34801561034657600080fd5b5060015460005403600019015b6040519081526020016102c4565b61028e61036f3660046120b2565b6109fb565b34801561038057600080fd5b506102b861038f366004612137565b610b93565b3480156103a057600080fd5b506103b46103af36600461218b565b610c15565b604080516001600160a01b0390931683526020830191909152016102c4565b3480156103df57600080fd5b5061035360125481565b3480156103f557600080fd5b50610353608081565b34801561040a57600080fd5b50600e5461030f906001600160a01b031681565b34801561042a57600080fd5b50600f5461030f906001600160a01b031681565b61028e61044c366004612086565b610cc3565b61028e61045f3660046120b2565b610d20565b34801561047057600080fd5b5061035360115481565b34801561048657600080fd5b5061049a6104953660046121ad565b610d40565b6040516102c4919061222a565b3480156104b357600080fd5b50600c546102b89060ff1681565b3480156104cd57600080fd5b5061030f6104dc366004612058565b610e0b565b61028e6104ef36600461226c565b610e16565b34801561050057600080fd5b5061035361050f36600461226c565b610e24565b34801561052057600080fd5b5061028e610e72565b34801561053557600080fd5b5061028e610544366004612058565b610e84565b34801561055557600080fd5b5061028e610564366004612058565b610e91565b34801561057557600080fd5b5061028e610584366004612289565b610e9e565b34801561059557600080fd5b506105a96105a436600461226c565b610eb0565b6040516102c491906122ce565b3480156105c257600080fd5b506008546001600160a01b031661030f565b3480156105e057600080fd5b5061028e6105ef366004612058565b610fb8565b34801561060057600080fd5b506102e2610fc5565b34801561061557600080fd5b506105a9610624366004612306565b610fd4565b34801561063557600080fd5b50610353600d5481565b61028e61064d366004612058565b611159565b34801561065e57600080fd5b5061028e61066d366004612350565b611163565b61028e6106803660046123f2565b6111cf565b34801561069157600080fd5b5061028e6106a03660046124a0565b611219565b3480156106b157600080fd5b5061028e6106c036600461226c565b611234565b3480156106d157600080fd5b506106e56106e0366004612058565b6112cf565b6040516102c491906124bb565b3480156106fe57600080fd5b506102e261070d366004612058565b611357565b34801561071e57600080fd5b5061028e61072d36600461226c565b6113c9565b34801561073e57600080fd5b5061035360105481565b34801561075457600080fd5b5061028e610763366004612058565b61143b565b61028e610776366004612086565b611448565b34801561078757600080fd5b506102b86107963660046124c9565b6001600160a01b03918216600090815260076020908152604080832093909416825291909152205460ff1690565b3480156107d057600080fd5b5061028e6107df36600461226c565b6114f2565b3480156107f057600080fd5b5061028e6107ff36600461226c565b611568565b61028e6108123660046124f7565b6115da565b610822336001610cc3565b565b60006001600160e01b031982166380ac58cd60e01b148061085557506001600160e01b03198216635b5e139f60e01b145b8061087057506001600160e01b0319821663152a902d60e11b145b8061087f575061087f82611692565b92915050565b60606002805461089490612529565b80601f01602080910402602001604051908101604052809291908181526020018280546108c090612529565b801561090d5780601f106108e25761010080835404028352916020019161090d565b820191906000526020600020905b8154815290600101906020018083116108f057829003601f168201915b5050505050905090565b6000610922826116c7565b61093f576040516333d1c03960e21b815260040160405180910390fd5b506000908152600660205260409020546001600160a01b031690565b600061096682610e0b565b9050336001600160a01b0382161461099f576109828133610796565b61099f576040516367d9dca160e11b815260040160405180910390fd5b60008281526006602052604080822080546001600160a01b0319166001600160a01b0387811691821790925591518593918516917f8c5be1e5ebec7d5bd14f71427d1e84f3dd0314c0f7b2291e5b200ac8c7c3b92591a4505050565b6000610a06826116fc565b9050836001600160a01b0316816001600160a01b031614610a395760405162a1148160e81b815260040160405180910390fd5b60008281526006602052604090208054338082146001600160a01b03881690911417610a8657610a698633610796565b610a8657604051632ce44b5f60e11b815260040160405180910390fd5b6001600160a01b038516610aad57604051633a954ecd60e21b815260040160405180910390fd5b8015610ab857600082555b6001600160a01b038681166000908152600560205260408082208054600019019055918716808252919020805460010190554260a01b17600160e11b17600085815260046020526040812091909155600160e11b84169003610b4a57600184016000818152600460205260408120549003610b48576000548114610b485760008181526004602052604090208490555b505b83856001600160a01b0316876001600160a01b03167fddf252ad1be2c89b69c2b068fc378daa952ba7f163c4a11628f55a4df523b3ef60405160405180910390a4505050505050565b6000610c0b838380806020026020016040519081016040528093929190818152602001838360200280828437600092019190915250506012546040516bffffffffffffffffffffffff1960608b901b16602082015290925060340190506040516020818303038152906040528051906020012061176b565b90505b9392505050565b6000828152600a602090815260408083208151808301909252546001600160a01b038116808352600160a01b9091046001600160601b0316928201929092528291610c8a5750604080518082019091526009546001600160a01b0381168252600160a01b90046001600160601b031660208201525b602081015160009061271090610ca9906001600160601b031687612579565b610cb39190612598565b91519350909150505b9250929050565b600c5460ff16158015610cd857506010544210155b610d125760405162461bcd60e51b815260206004820152600660248201526514105554d15160d21b60448201526064015b60405180910390fd5b610d1c8282611781565b5050565b610d3b838383604051806020016040528060008152506111cf565b505050565b6060816000816001600160401b03811115610d5d57610d5d612385565b604051908082528060200260200182016040528015610daf57816020015b604080516080810182526000808252602080830182905292820181905260608201528252600019909201910181610d7b5790505b50905060005b828114610e0257610ddd868683818110610dd157610dd16125ba565b905060200201356112cf565b828281518110610def57610def6125ba565b6020908102919091010152600101610db5565b50949350505050565b600061087f826116fc565b610e21816001610cc3565b50565b60006001600160a01b038216610e4d576040516323d3ad8160e21b815260040160405180910390fd5b506001600160a01b03166000908152600560205260409020546001600160401b031690565b610e7a611a17565b6108226000611a71565b610e8c611a17565b601155565b610e99611a17565b601255565b610ea6611a17565b610d1c8282611ac3565b60606000806000610ec085610e24565b90506000816001600160401b03811115610edc57610edc612385565b604051908082528060200260200182016040528015610f05578160200160208202803683370190505b509050610f3260408051608081018252600080825260208201819052918101829052606081019190915290565b60015b838614610fac57610f4581611bc0565b91508160400151610fa45781516001600160a01b031615610f6557815194505b876001600160a01b0316856001600160a01b031603610fa45780838780600101985081518110610f9757610f976125ba565b6020026020010181815250505b600101610f35565b50909695505050505050565b610fc0611a17565b600d55565b60606003805461089490612529565b6060818310610ff657604051631960ccad60e11b815260040160405180910390fd5b60008061100260005490565b9050600185101561101257600194505b8084111561101e578093505b600061102987610e24565b9050848610156110485785850381811015611042578091505b5061104c565b5060005b6000816001600160401b0381111561106657611066612385565b60405190808252806020026020018201604052801561108f578160200160208202803683370190505b509050816000036110a5579350610c0e92505050565b60006110b0886112cf565b9050600081604001516110c1575080515b885b8881141580156110d35750848714155b15611148576110e181611bc0565b925082604001516111405782516001600160a01b03161561110157825191505b8a6001600160a01b0316826001600160a01b0316036111405780848880600101995081518110611133576111336125ba565b6020026020010181815250505b6001016110c3565b505050928352509095945050505050565b610e213382610cc3565b3360008181526007602090815260408083206001600160a01b03871680855290835292819020805460ff191686151590811790915590519081529192917f17307eab39ab6107e8899845ad3d59bd9653f200f220920489ca2b5937696c31910160405180910390a35050565b6111da8484846109fb565b6001600160a01b0383163b15611213576111f684848484611bfc565b611213576040516368d2bf6b60e11b815260040160405180910390fd5b50505050565b611221611a17565b600c805460ff1916911515919091179055565b61123c611a17565b604051479060009081906001600160a01b0385169084908381818185875af1925050503d806000811461128b576040519150601f19603f3d011682016040523d82523d6000602084013e611290565b606091505b5091509150811515846001600160a01b031660008051602061270b83398151915283866040516112c19291906125d0565b60405180910390a350505050565b604080516080810182526000808252602082018190529181018290526060810191909152604080516080810182526000808252602082018190529181018290526060810191909152600183108061132857506000548310155b156113335792915050565b61133c83611bc0565b905080604001511561134e5792915050565b610c0e83611ce7565b600e5460405163295d33a960e21b8152600481018390526060916001600160a01b03169063a574cea490602401600060405180830381865afa1580156113a1573d6000803e3d6000fd5b505050506040513d6000823e601f3d908101601f1916820160405261087f91908101906125f2565b6113d1611a17565b6001600160a01b0381166114195760405162461bcd60e51b815260206004820152600f60248201526e4e4f205a45524f204144445245535360881b6044820152606401610d09565b600f80546001600160a01b0319166001600160a01b0392909216919091179055565b611443611a17565b601055565b611450611a17565b600f5460405160009182916001600160a01b039091169034908381818185875af1925050503d80600081146114a1576040519150601f19603f3d011682016040523d82523d6000602084013e6114a6565b606091505b50600f54604051929450909250831515916001600160a01b039091169060008051602061270b833981519152906114e090859034906125d0565b60405180910390a36112138484611d1c565b6114fa611a17565b6001600160a01b03811661155f5760405162461bcd60e51b815260206004820152602660248201527f4f776e61626c653a206e6577206f776e657220697320746865207a65726f206160448201526564647265737360d01b6064820152608401610d09565b610e2181611a71565b611570611a17565b6001600160a01b0381166115b85760405162461bcd60e51b815260206004820152600f60248201526e4e4f205a45524f204144445245535360881b6044820152606401610d09565b600e80546001600160a01b0319166001600160a01b0392909216919091179055565b6115e5338383610b93565b6116315760405162461bcd60e51b815260206004820152601c60248201527f596f7520617265206e6f74206f6e2074686520616c6c6f776c697374000000006044820152606401610d09565b600c5460ff1615801561164657506011544210155b6116885760405162461bcd60e51b8152602060048201526013602482015272141c995b5a5b9d081b9bdd081cdd185c9d1959606a1b6044820152606401610d09565b610d3b3384611781565b60006001600160e01b0319821663152a902d60e11b148061087f57506301ffc9a760e01b6001600160e01b031983161461087f565b6000816001111580156116db575060005482105b801561087f575050600090815260046020526040902054600160e01b161590565b60008180600111611752576000548110156117525760008181526004602052604081205490600160e01b82169003611750575b80600003610c0e57506000190160008181526004602052604090205461172f565b505b604051636f96cda160e11b815260040160405180910390fd5b6000826117788584611d36565b14949350505050565b611789611d83565b80600d546117979190612579565b3410156117d45760405162461bcd60e51b815260206004820152600b60248201526a57524f4e4720505249434560a81b6044820152606401610d09565b80600114806117e35750806003145b806117ee5750806005145b61184b5760405162461bcd60e51b815260206004820152602860248201527f43414e2754204d494e542042455349444553205155414e54495459204f4620316044820152672c2033204f52203560c01b6064820152608401610d09565b600154600054608091839103600019016118659190612668565b11156118c8576001546000540360001901611881906080612680565b9050806000036118c85760405162461bcd60e51b81526020600482015260126024820152711350560814d5541413164814915050d2115160721b6044820152606401610d09565b6000600d54826118d89190612579565b600f5460405191925060009182916001600160a01b03169084908381818185875af1925050503d806000811461192a576040519150601f19603f3d011682016040523d82523d6000602084013e61192f565b606091505b50600f54604051929450909250831515916001600160a01b039091169060008051602061270b8339815191529061196990859088906125d0565b60405180910390a361197b8585611d1c565b34831015611a0a573361198e8434612680565b604051600081818185875af1925050503d80600081146119ca576040519150601f19603f3d011682016040523d82523d6000602084013e6119cf565b606091505b5090925090508115153360008051602061270b833981519152836119f38734612680565b604051611a019291906125d0565b60405180910390a35b505050610d1c6001600b55565b6008546001600160a01b031633146108225760405162461bcd60e51b815260206004820181905260248201527f4f776e61626c653a2063616c6c6572206973206e6f7420746865206f776e65726044820152606401610d09565b600880546001600160a01b038381166001600160a01b0319831681179093556040519116919082907f8be0079c531659141344cd1fd0a4f28419497f9722a3daafe3b4186f6b6457e090600090a35050565b6127106001600160601b0382161115611b315760405162461bcd60e51b815260206004820152602a60248201527f455243323938313a20726f79616c7479206665652077696c6c206578636565646044820152692073616c65507269636560b01b6064820152608401610d09565b6001600160a01b038216611b875760405162461bcd60e51b815260206004820152601960248201527f455243323938313a20696e76616c6964207265636569766572000000000000006044820152606401610d09565b604080518082019091526001600160a01b039092168083526001600160601b039091166020909201829052600160a01b90910217600955565b60408051608081018252600080825260208201819052918101829052606081019190915260008281526004602052604090205461087f90611ddc565b604051630a85bd0160e11b81526000906001600160a01b0385169063150b7a0290611c31903390899088908890600401612697565b6020604051808303816000875af1925050508015611c6c575060408051601f3d908101601f19168201909252611c69918101906126d4565b60015b611cca573d808015611c9a576040519150601f19603f3d011682016040523d82523d6000602084013e611c9f565b606091505b508051600003611cc2576040516368d2bf6b60e11b815260040160405180910390fd5b805181602001fd5b6001600160e01b031916630a85bd0160e11b149050949350505050565b60408051608081018252600080825260208201819052918101829052606081019190915261087f611d17836116fc565b611ddc565b610d1c828260405180602001604052806000815250611e23565b600081815b8451811015611d7b57611d6782868381518110611d5a57611d5a6125ba565b6020026020010151611e90565b915080611d73816126f1565b915050611d3b565b509392505050565b6002600b5403611dd55760405162461bcd60e51b815260206004820152601f60248201527f5265656e7472616e637947756172643a207265656e7472616e742063616c6c006044820152606401610d09565b6002600b55565b604080516080810182526001600160a01b038316815260a083901c6001600160401b03166020820152600160e01b831615159181019190915260e89190911c606082015290565b611e2d8383611ebc565b6001600160a01b0383163b15610d3b576000548281035b611e576000868380600101945086611bfc565b611e74576040516368d2bf6b60e11b815260040160405180910390fd5b818110611e44578160005414611e8957600080fd5b5050505050565b6000818310611eac576000828152602084905260409020610c0e565b5060009182526020526040902090565b6000805490829003611ee15760405163b562e8dd60e01b815260040160405180910390fd5b6001600160a01b03831660008181526005602090815260408083208054680100000000000000018802019055848352600490915281206001851460e11b4260a01b178317905582840190839083907fddf252ad1be2c89b69c2b068fc378daa952ba7f163c4a11628f55a4df523b3ef8180a4600183015b818114611f9057808360007fddf252ad1be2c89b69c2b068fc378daa952ba7f163c4a11628f55a4df523b3ef600080a4600101611f58565b5081600003611fb157604051622e076360e81b815260040160405180910390fd5b60005550505050565b6001600160e01b031981168114610e2157600080fd5b600060208284031215611fe257600080fd5b8135610c0e81611fba565b60005b83811015612008578181015183820152602001611ff0565b838111156112135750506000910152565b60008151808452612031816020860160208601611fed565b601f01601f19169290920160200192915050565b602081526000610c0e6020830184612019565b60006020828403121561206a57600080fd5b5035919050565b6001600160a01b0381168114610e2157600080fd5b6000806040838503121561209957600080fd5b82356120a481612071565b946020939093013593505050565b6000806000606084860312156120c757600080fd5b83356120d281612071565b925060208401356120e281612071565b929592945050506040919091013590565b60008083601f84011261210557600080fd5b5081356001600160401b0381111561211c57600080fd5b6020830191508360208260051b8501011115610cbc57600080fd5b60008060006040848603121561214c57600080fd5b833561215781612071565b925060208401356001600160401b0381111561217257600080fd5b61217e868287016120f3565b9497909650939450505050565b6000806040838503121561219e57600080fd5b50508035926020909101359150565b600080602083850312156121c057600080fd5b82356001600160401b038111156121d657600080fd5b6121e2858286016120f3565b90969095509350505050565b80516001600160a01b031682526020808201516001600160401b03169083015260408082015115159083015260609081015162ffffff16910152565b6020808252825182820181905260009190848201906040850190845b81811015610fac576122598385516121ee565b9284019260809290920191600101612246565b60006020828403121561227e57600080fd5b8135610c0e81612071565b6000806040838503121561229c57600080fd5b82356122a781612071565b915060208301356001600160601b03811681146122c357600080fd5b809150509250929050565b6020808252825182820181905260009190848201906040850190845b81811015610fac578351835292840192918401916001016122ea565b60008060006060848603121561231b57600080fd5b833561232681612071565b95602085013595506040909401359392505050565b8035801515811461234b57600080fd5b919050565b6000806040838503121561236357600080fd5b823561236e81612071565b915061237c6020840161233b565b90509250929050565b634e487b7160e01b600052604160045260246000fd5b604051601f8201601f191681016001600160401b03811182821017156123c3576123c3612385565b604052919050565b60006001600160401b038211156123e4576123e4612385565b50601f01601f191660200190565b6000806000806080858703121561240857600080fd5b843561241381612071565b9350602085013561242381612071565b92506040850135915060608501356001600160401b0381111561244557600080fd5b8501601f8101871361245657600080fd5b8035612469612464826123cb565b61239b565b81815288602083850101111561247e57600080fd5b8160208401602083013760006020838301015280935050505092959194509250565b6000602082840312156124b257600080fd5b610c0e8261233b565b6080810161087f82846121ee565b600080604083850312156124dc57600080fd5b82356124e781612071565b915060208301356122c381612071565b60008060006040848603121561250c57600080fd5b8335925060208401356001600160401b0381111561217257600080fd5b600181811c9082168061253d57607f821691505b60208210810361255d57634e487b7160e01b600052602260045260246000fd5b50919050565b634e487b7160e01b600052601160045260246000fd5b600081600019048311821515161561259357612593612563565b500290565b6000826125b557634e487b7160e01b600052601260045260246000fd5b500490565b634e487b7160e01b600052603260045260246000fd5b6040815260006125e36040830185612019565b90508260208301529392505050565b60006020828403121561260457600080fd5b81516001600160401b0381111561261a57600080fd5b8201601f8101841361262b57600080fd5b8051612639612464826123cb565b81815285602083850101111561264e57600080fd5b61265f826020830160208601611fed565b95945050505050565b6000821982111561267b5761267b612563565b500190565b60008282101561269257612692612563565b500390565b6001600160a01b03858116825284166020820152604081018390526080606082018190526000906126ca90830184612019565b9695505050505050565b6000602082840312156126e657600080fd5b8151610c0e81611fba565b60006001820161270357612703612563565b506001019056feb08889abce443443404b2caf69aa3ccfb9ebfdf1ad2a634d06e11e24c1067938a26469706673582212208bf384477f30abba0732fa361c7f56f7969f92f952768499a4e55bb34279a8dd64736f6c634300080f0033",
  "linkReferences": {},
  "deployedLinkReferences": {}
}